:4000000080673030303030307e3030307e3030307e3030307e3030307e3030307e3030307e3030307d072b7e7e3030307d06ce7e7e3030307d06717e7d04117e7d04127eac
:400040007e3030307e3030307e3030307e3030307e3030307e3030307e3030307e3030307e3030307e303030711062fa0062e38770ef50202850402850602841fefb5080ba
:400080004e55f80055f900711062e00270ef62e338627105627505627905627d0562d10750004e62d30762d00062d50062d40071c07c03af62d000500357ad0828532618e2
:4000c000750900284b5126800475090062e300082860d574a04b1875090008285326187509000828a01c53251875090008283f264726ffb0065dd57460d5187a25bfeb8f3c
:40010000c9187509000828532550003f264726ffb0085dd57460d550007a25bfef188faa18711070ef62e000711062e00043e78070ef62e2007c07888fff50107f303030c4
:40014000303030303030303030303030303030303030303030303030303030303030303030303030303030303030303030303030303030303030303030303030303030307f
:4001800030303030303030303030303030303030303030303030303030303030303030302020203c003e0d0a004d6f746f7220616e676c65732028312c20322c2033293aca
:4001c000200d0a56616c7565730d0a3c000d0a536572766f20636f6e74726f6c6c657220696e74697469617465642e0d0a002300211f22e72700254e26032b00291f2adb40
:400200002f002d4e2e053300311f32cf3700354e36073f003d003e003b0039003a006028660063056500e600e700d600b000b100b200b333b433b588b600b855b900ba103d
:40024000bb33bc33bd24be00c000c100c220c333c433c500c600c855c900ca30cb33cc33cd00ce006c006d006e006f00ff200121162240242125362644280129162a402c38
:40028000212d362e453001311632403421353636443c053dc13e40380d39013a4561006900600062006733683363006600d100d300d000d200e1b1e200df19de00dd00e78a
:4002c00000ff71106200226201dd70ef6203cd620232711062020062030070ef62010071106204316205ce70ef6207ce620631711062060062070070ef6205007110620808
:40030000006209ff70ef620bff620a007110620a00620b0070ef6209007110620c00620d0070ef620f00620e007110620e00620f0070ef620d00711062100062110070ef65
:40034000621300621200711062120062130070ef621100711062140062150070ef621700621600711062160062170070ef621500711062180062190070ef621b00621a0084
:400380007110621a00621b0070ef6219007110621c00621d0070ef621f00621e007110621e00621f0070ef621d0070ef7f0b677c03b67c02c27f1070ef500067500157eeab
:4003c0007c03d15001675002576d7c03d170ef207f380210084f56fc00d00456fc01182070ef62e30010082839ffa01f4f48fc01a003711054fd18207509001008284f59bd
:40040000fd610018207509008fd738fc703f71c07f7e08105dd30858015d3f082108b00418805e1821e0a0122c00493e002120a050413ffe433f0180485d3e470001b041c5
:40044000390db0142e000162d300703f7180560200703f7100802a3920c02662d3003c011fc011703f7180560200703f71002e0010800e703f71805402703f7100755a01e1
:400480001860d320187e43e14043e1807f41e1bf41e17f7f71102101a00743381070ef7f4138ef70ef7f2901603b603f912a7f413bfe413ffe7f60397f5d3b7f5d3e7f5dff
:4004c0003f7f210171103901a0064138ef800443381070ef7f082101a00643e180800441e17f182102a00643e140800441e1bf7f3031323334353637383941424344454602
:400500000867676767210fffe7900f18210fffe090087f4b9fea5b9fe77f493b10affc60397f493f08affc5d3e7f5d3f082108b00418800b5d3e4b1821a0b0034b7f500094
:400540007f5d3f21e8082108b0071829014b80071821e04b5d3e7f70bf60d35200a0069fb9758ff8703f71c07f70bf62d3074f52fba01a7bfb52fc59fd60d35200493b10dc
:40058000affc60394f62d30777fd8fe4703f71c07f4f3dfa00b0063dfb00a01d1052fc59fd28493b10affc60392007fd010ffc0017fb011ffa008fdb703f71c07f081028dc
:4005c000a00b9f56201875dff5748ff238fe7f500d9f47500a9f437f62d00055020062d00055010026000062d0005531007f62d000510021017f62d000510021f026000fd7
:400600007f62d00051017f70bf62d000500202315c62d3005200b0041080333920b01175763152003c311fbff310560000801f107576313c311faff35200a0123920bff1c6
:4006400056000076313c311fb00455311f20103d0000b00b2057005000703f71c07f205000703f71c07f62d000500202315c50007f7e43e1207f41e1df7f4333017f41336e
:40068000fe7f60315b60357f60325b60367f5d365c5d327f4f5d36085d32084133fe71105d310862310070ef5d345d36085d305d320852006036520160327110520260313f
:4006c00070ef433301182038fd703f71c07f7e43e1087f41e1f77f432b017f412bfe7f60295b602d7f602a5b602e7f5d2e5c5d2a7f4f5d2e085d2a08412bfe71105d290807
:4007000062290070ef5d2c5d2e085d285d2a085200602e5201602a71105202602970ef432b01182038fd703f71c07f7e43e1027f41e1fd7f4323017f4123fe7f60215b6026
:40074000257f60225b60267f5d265c5d227f4f5d26085d22084123fe71105d210862210070ef5d245d26085d205d2208520060265201602271105202602170ef4323011879
:400780002038fd703f71c07f104f3802107c05d8201050017c04d5201050007c04a6207101107c07347c06d77c067a201050010850cd5c187c05bd20813d107c05ee62d072
:4007c00000203900a131107c060762d00053265a252051255401512654003c2600b0063c2500a10e62d000553000552f001050010850a95c187c05bd205200085201089079
:40080000fc38fe62d000512508512662d000532918532a1052000852015c187c0557201050010850a55c187c05bd20807d62d0003c2f00b0223c3000b01d52000852010869
:4008400090bb38fe62d000512508512662d000532b18532c802862d0003c2f00b0203c3001b01b520008520108909238fe62d000512508512662d000532718532810500168
:400880000850a05c187c05bd201052000852015c187c0557201050010850a55c187c05bd2062d00076300e2f00107c060762d00053265a252051255401512654003c260025
:4008c000bf6c3c2500bf671062d000512908512a207c0742201062d000512b08512c207c06e5201062d0005127085128207c068820107c05d8208ec338fe208fff104f383e
:400900000556030056020056010056000080fc3d0000b0423d0100b03d62d000520103fc532552000bfb60d43e25532550000851250850030850e8087c0b2938fc512453fe
:4009400025512353261625801e26bb5125050351260d0280b13d0000b0423d0101b03d62d000520103fc532552000bfb60d43e2553255000085125085000085064087c0b47
:400980002938fc51245325512353261625c01e26125125050351260d02806b3d0000b0423d0102b03d62d000520103fc532552000bfb60d43e2553255000085125085000db
:4009c00008500a087c0b2938fc51245325512353261625e01e26015125050351260d02802562d000520103fc532552000bfb60d43e2553255526001625301e2600512505be
:400a00000351260d0277010f000062d000520103fc532552000bfb60d43e25532654043900beed3d0000b0223d0101b01d50030850e80852020852030862d0007c0aa21825
:400a4000540318540238fe804b3d0000b0223d0102b01d50000850640852020852030862d0007c0aa218540318540238fe80253d0000b0203d0103b01b500008500a085290
:400a8000020852030862d0007c0aa218540318540238fe62d000520353255202532638fb207f104f50003dfb80c00d37fcff77fc37fbff0dfb50c03df980c00e37faff7777
:400ac000fa37f9ff0ff9003180087c0af0186ad00c37fcff37fbff77fc0ffb006ad00c37faff37f9ff77fa0ff90020703f71c07f5dd00862d000500053235324552210662a
:400b0000fc6cfb6b236b2451231bfa51241bf9c009532452fa1c2377fc7a22bfe3512354fa512454f91860d07f104f5dd00862d00052f960e952fc60e85deb532352fa6002
:400b4000e95deb53245dea48fc80a00303fa6cfad00303fc042352fb60e85deb04231860d020703f71c07f00270a07cf03e705db00010000ff003030303030303030303047
:400b80003030303030303030303030303030303030303030303030303030303030303030303030303030303030303030303030303030303030303030303030303030303035
:400bc00030303030303030303030303030303030303030303030303030303030303030303030303030303030303030303030303030303030303030303030303030303030f5
:400c000030303030303030303030303030303030303030303030303030303030303030303030303030303030303030303030303030303030303030303030303030303030b4
:400c40003030303030303030303030303030303030303030303030303030303030303030303030303030303030303030303030303030303030303030303030303030303074
:020000040010ea
:020000040020da
:0200000069266f
:00000001ff
